{
  "contractName": "Adoption",
  "abi": [
    {
      "constant": true,
      "inputs": [
        {
          "name": "",
          "type": "uint256"
        }
      ],
      "name": "adopters",
      "outputs": [
        {
          "name": "",
          "type": "address"
        }
      ],
      "payable": false,
      "stateMutability": "view",
      "type": "function"
    },
    {
      "constant": false,
      "inputs": [
        {
          "name": "petId",
          "type": "uint256"
        }
      ],
      "name": "adopt",
      "outputs": [
        {
          "name": "",
          "type": "uint256"
        }
      ],
      "payable": false,
      "stateMutability": "nonpayable",
      "type": "function"
    },
    {
      "constant": false,
      "inputs": [
        {
          "name": "petId",
          "type": "uint256"
        }
      ],
      "name": "unadopt",
      "outputs": [
        {
          "name": "",
          "type": "uint256"
        }
      ],
      "payable": false,
      "stateMutability": "nonpayable",
      "type": "function"
    },
    {
      "constant": true,
      "inputs": [],
      "name": "getAdopters",
      "outputs": [
        {
          "name": "",
          "type": "address[16]"
        }
      ],
      "payable": false,
      "stateMutability": "view",
      "type": "function"
    }
  ],
  "bytecode": "0x608060405234801561001057600080fd5b5061037d806100206000396000f300608060405260043610610062576000357c0100000000000000000000000000000000000000000000000000000000900463ffffffff1680633de4eb171461006757806343ae80d3146100ba5780638588b2c51461012757806390b8402914610168575b600080fd5b34801561007357600080fd5b5061007c6101a9565b6040518082601060200280838360005b838110156100a757808201518184015260208101905061008c565b5050505090500191505060405180910390f35b3480156100c657600080fd5b506100e56004803603810190808035906020019092919050505061022a565b604051808273ffffffffffffffffffffffffffffffffffffffff1673ffffffffffffffffffffffffffffffffffffffff16815260200191505060405180910390f35b34801561013357600080fd5b506101526004803603810190808035906020019092919050505061025f565b6040518082815260200191505060405180910390f35b34801561017457600080fd5b50610193600480360381019080803590602001909291905050506102d4565b6040518082815260200191505060405180910390f35b6101b161032d565b6000601080602002604051908101604052809291908260108015610220576020028201915b8160009054906101000a900473ffffffffffffffffffffffffffffffffffffffff1673ffffffffffffffffffffffffffffffffffffffff16815260200190600101908083116101d6575b5050505050905090565b60008160108110151561023957fe5b016000915054906101000a900473ffffffffffffffffffffffffffffffffffffffff1681565b60008082101580156102725750600f8211155b151561027d57600080fd5b3360008360108110151561028d57fe5b0160006101000a81548173ffffffffffffffffffffffffffffffffffffffff021916908373ffffffffffffffffffffffffffffffffffffffff160217905550819050919050565b60008082101580156102e75750600f8211155b15156102f257600080fd5b60008260108110151561030157fe5b0160006101000a81549073ffffffffffffffffffffffffffffffffffffffff0219169055819050919050565b610200604051908101604052806010906020820280388339808201915050905050905600a165627a7a7230582060919f97d807244248b7a1016d26b38ae8448f4dfea15391e13ab1b155dbcc540029",
  "source": "pragma solidity ^0.4.24;\n\ncontract Adoption {\n\taddress[16] public adopters;\n\n\tfunction adopt(uint petId) public returns (uint){\n\t\trequire(petId >= 0 && petId <= 15);\n\n\t\tadopters[petId] = msg.sender;\n\n\t\treturn petId;\n\t}\n\n\tfunction unadopt(uint petId) public returns (uint){\n\t\trequire(petId >= 0 && petId <= 15);\n\n\t\tdelete adopters[petId];\n\n\t\treturn petId;\n\t}\n\n\tfunction getAdopters() public view returns (address[16]){\n\t\treturn adopters;\n\t}\n}",
  "sourcePath": "/Users/afzal/repos/truffle-pet-shop/contracts/Adoption.sol",
  "compiler": {
    "name": "solc",
    "version": "0.4.24+commit.e67f0147.Emscripten.clang"
  },
  "schemaVersion": "2.0.1",
  "updatedAt": "2018-11-13T09:23:14.806Z"
}